{
  "_format": "hh-sol-artifact-1",
  "contractName": "Lock",
  "sourceName": "contracts/Lock.sol",
  "abi": [
    {
      "inputs": [
        {
          "internalType": "uint256",
          "name": "",
          "type": "uint256"
        }
      ],
      "name": "campaigns",
      "outputs": [
        {
          "internalType": "address",
          "name": "owner",
          "type": "address"
        },
        {
          "internalType": "string",
          "name": "title",
          "type": "string"
        },
        {
          "internalType": "string",
          "name": "description",
          "type": "string"
        },
        {
          "internalType": "uint256",
          "name": "target",
          "type": "uint256"
        },
        {
          "internalType": "uint256",
          "name": "deadline",
          "type": "uint256"
        },
        {
          "internalType": "uint256",
          "name": "amountCollected",
          "type": "uint256"
        },
        {
          "internalType": "string",
          "name": "image",
          "type": "string"
        }
      ],
      "stateMutability": "view",
      "type": "function"
    },
    {
      "inputs": [
        {
          "internalType": "address",
          "name": "_owner",
          "type": "address"
        },
        {
          "internalType": "string",
          "name": "_title",
          "type": "string"
        },
        {
          "internalType": "string",
          "name": "_description",
          "type": "string"
        },
        {
          "internalType": "uint256",
          "name": "_target",
          "type": "uint256"
        },
        {
          "internalType": "uint256",
          "name": "_deadline",
          "type": "uint256"
        },
        {
          "internalType": "string",
          "name": "_image",
          "type": "string"
        }
      ],
      "name": "createCampaign",
      "outputs": [
        {
          "internalType": "uint256",
          "name": "",
          "type": "uint256"
        }
      ],
      "stateMutability": "nonpayable",
      "type": "function"
    },
    {
      "inputs": [
        {
          "internalType": "uint256",
          "name": "_id",
          "type": "uint256"
        }
      ],
      "name": "donateToCampaign",
      "outputs": [],
      "stateMutability": "payable",
      "type": "function"
    },
    {
      "inputs": [],
      "name": "getCampaigns",
      "outputs": [
        {
          "components": [
            {
              "internalType": "address",
              "name": "owner",
              "type": "address"
            },
            {
              "internalType": "string",
              "name": "title",
              "type": "string"
            },
            {
              "internalType": "string",
              "name": "description",
              "type": "string"
            },
            {
              "internalType": "uint256",
              "name": "target",
              "type": "uint256"
            },
            {
              "internalType": "uint256",
              "name": "deadline",
              "type": "uint256"
            },
            {
              "internalType": "uint256",
              "name": "amountCollected",
              "type": "uint256"
            },
            {
              "internalType": "string",
              "name": "image",
              "type": "string"
            },
            {
              "internalType": "address[]",
              "name": "donators",
              "type": "address[]"
            },
            {
              "internalType": "uint256[]",
              "name": "donations",
              "type": "uint256[]"
            }
          ],
          "internalType": "struct Lock.Campaign[]",
          "name": "",
          "type": "tuple[]"
        }
      ],
      "stateMutability": "view",
      "type": "function"
    },
    {
      "inputs": [
        {
          "internalType": "uint256",
          "name": "_id",
          "type": "uint256"
        }
      ],
      "name": "getDonators",
      "outputs": [
        {
          "internalType": "address[]",
          "name": "",
          "type": "address[]"
        },
        {
          "internalType": "uint256[]",
          "name": "",
          "type": "uint256[]"
        }
      ],
      "stateMutability": "view",
      "type": "function"
    },
    {
      "inputs": [],
      "name": "numberOfCampaigns",
      "outputs": [
        {
          "internalType": "uint256",
          "name": "",
          "type": "uint256"
        }
      ],
      "stateMutability": "view",
      "type": "function"
    },
    {
      "inputs": [
        {
          "internalType": "uint256",
          "name": "_id",
          "type": "uint256"
        }
      ],
      "name": "withdrawFunds",
      "outputs": [],
      "stateMutability": "nonpayable",
      "type": "function"
    }
  ],
  "bytecode": "0x6080604052600060015534801561001557600080fd5b50611f44806100256000396000f3fe6080604052600436106100705760003560e01c8063155dd5ee1161004e578063155dd5ee1461012157806342a4fda81461014a5780639943e3a114610166578063a6b03633146101a357610070565b806307ca140d146100755780630fa91fa9146100a0578063141961bc146100de575b600080fd5b34801561008157600080fd5b5061008a6101ce565b6040516100979190610e6b565b60405180910390f35b3480156100ac57600080fd5b506100c760048036038101906100c29190610ec6565b6101d4565b6040516100d59291906110a1565b60405180910390f35b3480156100ea57600080fd5b5061010560048036038101906101009190610ec6565b6102e4565b6040516101189796959493929190611177565b60405180910390f35b34801561012d57600080fd5b5061014860048036038101906101439190610ec6565b6104de565b005b610164600480360381019061015f9190610ec6565b61070c565b005b34801561017257600080fd5b5061018d6004803603810190610188919061135c565b6108fc565b60405161019a9190610e6b565b60405180910390f35b3480156101af57600080fd5b506101b8610a20565b6040516101c59190611708565b60405180910390f35b60015481565b6060806000808481526020019081526020016000206007016000808581526020019081526020016000206008018180548060200260200160405190810160405280929190818152602001828054801561028257602002820191906000526020600020905b8160009054906101000a900473ffffffffffffffffffffffffffffffffffffffff1673ffffffffffffffffffffffffffffffffffffffff1681526020019060010190808311610238575b50505050509150808054806020026020016040519081016040528092919081815260200182805480156102d457602002820191906000526020600020905b8154815260200190600101908083116102c0575b5050505050905091509150915091565b60006020528060005260406000206000915090508060000160009054906101000a900473ffffffffffffffffffffffffffffffffffffffff169080600101805461032d90611759565b80601f016020809104026020016040519081016040528092919081815260200182805461035990611759565b80156103a65780601f1061037b576101008083540402835291602001916103a6565b820191906000526020600020905b81548152906001019060200180831161038957829003601f168201915b5050505050908060020180546103bb90611759565b80601f01602080910402602001604051908101604052809291908181526020018280546103e790611759565b80156104345780601f1061040957610100808354040283529160200191610434565b820191906000526020600020905b81548152906001019060200180831161041757829003601f168201915b50505050509080600301549080600401549080600501549080600601805461045b90611759565b80601f016020809104026020016040519081016040528092919081815260200182805461048790611759565b80156104d45780601f106104a9576101008083540402835291602001916104d4565b820191906000526020600020905b8154815290600101906020018083116104b757829003601f168201915b5050505050905087565b6000806000838152602001908152602001600020905080600401544210158061050f57508060030154816005015410155b61054e576040517f08c379a0000000000000000000000000000000000000000000000000000000008152600401610545906117fc565b60405180910390fd5b8060000160009054906101000a900473ffffffffffffffffffffffffffffffffffffffff1673ffffffffffffffffffffffffffffffffffffffff163373ffffffffffffffffffffffffffffffffffffffff16146105e0576040517f08c379a00000000000000000000000000000000000000000000000000000000081526004016105d79061188e565b60405180910390fd5b6000816005015490506000811161062c576040517f08c379a000000000000000000000000000000000000000000000000000000000815260040161062390611920565b60405180910390fd5b6000826005018190555060008260000160009054906101000a900473ffffffffffffffffffffffffffffffffffffffff1673ffffffffffffffffffffffffffffffffffffffff168260405161068090611971565b60006040518083038185875af1925050503d80600081146106bd576040519150601f19603f3d011682016040523d82523d6000602084013e6106c2565b606091505b5050905080610706576040517f08c379a00000000000000000000000000000000000000000000000000000000081526004016106fd906119d2565b60405180910390fd5b50505050565b6000349050600080600084815260200190815260200160002090508060040154421061076d576040517f08c379a000000000000000000000000000000000000000000000000000000000815260040161076490611a3e565b60405180910390fd5b80600301548160050154106107b7576040517f08c379a00000000000000000000000000000000000000000000000000000000081526004016107ae90611ad0565b60405180910390fd5b80600701339080600181540180825580915050600190039060005260206000200160009091909190916101000a81548173ffffffffffffffffffffffffffffffffffffffff021916908373ffffffffffffffffffffffffffffffffffffffff1602179055508060080182908060018154018082558091505060019003906000526020600020016000909190919091505560008160000160009054906101000a900473ffffffffffffffffffffffffffffffffffffffff1673ffffffffffffffffffffffffffffffffffffffff168360405161089190611971565b60006040518083038185875af1925050503d80600081146108ce576040519150601f19603f3d011682016040523d82523d6000602084013e6108d3565b606091505b5050905080156108f6578282600501546108ed9190611b1f565b82600501819055505b50505050565b6000428311610940576040517f08c379a000000000000000000000000000000000000000000000000000000000815260040161093790611bc5565b60405180910390fd5b600080600060015481526020019081526020016000209050878160000160006101000a81548173ffffffffffffffffffffffffffffffffffffffff021916908373ffffffffffffffffffffffffffffffffffffffff160217905550868160010190816109ac9190611d91565b50858160020190816109be9190611d91565b5084816003018190555083816004018190555060008160050181905550828160060190816109ec9190611d91565b5060016000815480929190610a0090611e63565b919050555060018054610a139190611eab565b9150509695505050505050565b6060600060015467ffffffffffffffff811115610a4057610a3f611231565b5b604051908082528060200260200182016040528015610a7957816020015b610a66610df0565b815260200190600190039081610a5e5790505b50905060005b600154811015610de8576000806000838152602001908152602001600020905080604051806101200160405290816000820160009054906101000a900473ffffffffffffffffffffffffffffffffffffffff1673ffffffffffffffffffffffffffffffffffffffff1673ffffffffffffffffffffffffffffffffffffffff168152602001600182018054610b1290611759565b80601f0160208091040260200160405190810160405280929190818152602001828054610b3e90611759565b8015610b8b5780601f10610b6057610100808354040283529160200191610b8b565b820191906000526020600020905b815481529060010190602001808311610b6e57829003601f168201915b50505050508152602001600282018054610ba490611759565b80601f0160208091040260200160405190810160405280929190818152602001828054610bd090611759565b8015610c1d5780601f10610bf257610100808354040283529160200191610c1d565b820191906000526020600020905b815481529060010190602001808311610c0057829003601f168201915b50505050508152602001600382015481526020016004820154815260200160058201548152602001600682018054610c5490611759565b80601f0160208091040260200160405190810160405280929190818152602001828054610c8090611759565b8015610ccd5780601f10610ca257610100808354040283529160200191610ccd565b820191906000526020600020905b815481529060010190602001808311610cb057829003601f168201915b5050505050815260200160078201805480602002602001604051908101604052809291908181526020018280548015610d5b57602002820191906000526020600020905b8160009054906101000a900473ffffffffffffffffffffffffffffffffffffffff1673ffffffffffffffffffffffffffffffffffffffff1681526020019060010190808311610d11575b5050505050815260200160088201805480602002602001604051908101604052809291908181526020018280548015610db357602002820191906000526020600020905b815481526020019060010190808311610d9f575b505050505081525050838381518110610dcf57610dce611edf565b5b6020026020010181905250508080600101915050610a7f565b508091505090565b604051806101200160405280600073ffffffffffffffffffffffffffffffffffffffff16815260200160608152602001606081526020016000815260200160008152602001600081526020016060815260200160608152602001606081525090565b6000819050919050565b610e6581610e52565b82525050565b6000602082019050610e806000830184610e5c565b92915050565b6000604051905090565b600080fd5b600080fd5b610ea381610e52565b8114610eae57600080fd5b50565b600081359050610ec081610e9a565b92915050565b600060208284031215610edc57610edb610e90565b5b6000610eea84828501610eb1565b91505092915050565b600081519050919050565b600082825260208201905092915050565b6000819050602082019050919050565b600073ffffffffffffffffffffffffffffffffffffffff82169050919050565b6000610f4a82610f1f565b9050919050565b610f5a81610f3f565b82525050565b6000610f6c8383610f51565b60208301905092915050565b6000602082019050919050565b6000610f9082610ef3565b610f9a8185610efe565b9350610fa583610f0f565b8060005b83811015610fd6578151610fbd8882610f60565b9750610fc883610f78565b925050600181019050610fa9565b5085935050505092915050565b600081519050919050565b600082825260208201905092915050565b6000819050602082019050919050565b61101881610e52565b82525050565b600061102a838361100f565b60208301905092915050565b6000602082019050919050565b600061104e82610fe3565b6110588185610fee565b935061106383610fff565b8060005b8381101561109457815161107b888261101e565b975061108683611036565b925050600181019050611067565b5085935050505092915050565b600060408201905081810360008301526110bb8185610f85565b905081810360208301526110cf8184611043565b90509392505050565b6110e181610f3f565b82525050565b600081519050919050565b600082825260208201905092915050565b60005b83811015611121578082015181840152602081019050611106565b60008484015250505050565b6000601f19601f8301169050919050565b6000611149826110e7565b61115381856110f2565b9350611163818560208601611103565b61116c8161112d565b840191505092915050565b600060e08201905061118c600083018a6110d8565b818103602083015261119e818961113e565b905081810360408301526111b2818861113e565b90506111c16060830187610e5c565b6111ce6080830186610e5c565b6111db60a0830185610e5c565b81810360c08301526111ed818461113e565b905098975050505050505050565b61120481610f3f565b811461120f57600080fd5b50565b600081359050611221816111fb565b92915050565b600080fd5b600080fd5b7f4e487b7100000000000000000000000000000000000000000000000000000000600052604160045260246000fd5b6112698261112d565b810181811067ffffffffffffffff8211171561128857611287611231565b5b80604052505050565b600061129b610e86565b90506112a78282611260565b919050565b600067ffffffffffffffff8211156112c7576112c6611231565b5b6112d08261112d565b9050602081019050919050565b82818337600083830152505050565b60006112ff6112fa846112ac565b611291565b90508281526020810184848401111561131b5761131a61122c565b5b6113268482856112dd565b509392505050565b600082601f83011261134357611342611227565b5b81356113538482602086016112ec565b91505092915050565b60008060008060008060c0878903121561137957611378610e90565b5b600061138789828a01611212565b965050602087013567ffffffffffffffff8111156113a8576113a7610e95565b5b6113b489828a0161132e565b955050604087013567ffffffffffffffff8111156113d5576113d4610e95565b5b6113e189828a0161132e565b94505060606113f289828a01610eb1565b935050608061140389828a01610eb1565b92505060a087013567ffffffffffffffff81111561142457611423610e95565b5b61143089828a0161132e565b9150509295509295509295565b600081519050919050565b600082825260208201905092915050565b6000819050602082019050919050565b600082825260208201905092915050565b6000611485826110e7565b61148f8185611469565b935061149f818560208601611103565b6114a88161112d565b840191505092915050565b600082825260208201905092915050565b60006114cf82610ef3565b6114d981856114b3565b93506114e483610f0f565b8060005b838110156115155781516114fc8882610f60565b975061150783610f78565b9250506001810190506114e8565b5085935050505092915050565b600082825260208201905092915050565b600061153e82610fe3565b6115488185611522565b935061155383610fff565b8060005b8381101561158457815161156b888261101e565b975061157683611036565b925050600181019050611557565b5085935050505092915050565b6000610120830160008301516115aa6000860182610f51565b50602083015184820360208601526115c2828261147a565b915050604083015184820360408601526115dc828261147a565b91505060608301516115f1606086018261100f565b506080830151611604608086018261100f565b5060a083015161161760a086018261100f565b5060c083015184820360c086015261162f828261147a565b91505060e083015184820360e086015261164982826114c4565b9150506101008301518482036101008601526116658282611533565b9150508091505092915050565b600061167e8383611591565b905092915050565b6000602082019050919050565b600061169e8261143d565b6116a88185611448565b9350836020820285016116ba85611459565b8060005b858110156116f657848403895281516116d78582611672565b94506116e283611686565b925060208a019950506001810190506116be565b50829750879550505050505092915050565b600060208201905081810360008301526117228184611693565b905092915050565b7f4e487b7100000000000000000000000000000000000000000000000000000000600052602260045260246000fd5b6000600282049050600182168061177157607f821691505b6020821081036117845761178361172a565b5b50919050565b7f5468652074617267657420616d6f756e74206f7220646561646c696e6520686160008201527f73206e6f74206265656e20726561636865642e00000000000000000000000000602082015250565b60006117e66033836110f2565b91506117f18261178a565b604082019050919050565b60006020820190508181036000830152611815816117d9565b9050919050565b7f4f6e6c79207468652063616d706169676e206f776e65722063616e207769746860008201527f64726177207468652066756e64732e0000000000000000000000000000000000602082015250565b6000611878602f836110f2565b91506118838261181c565b604082019050919050565b600060208201905081810360008301526118a78161186b565b9050919050565b7f4e6f2066756e647320617661696c61626c6520666f722077697468647261776160008201527f6c2e000000000000000000000000000000000000000000000000000000000000602082015250565b600061190a6022836110f2565b9150611915826118ae565b604082019050919050565b60006020820190508181036000830152611939816118fd565b9050919050565b600081905092915050565b50565b600061195b600083611940565b91506119668261194b565b600082019050919050565b600061197c8261194e565b9150819050919050565b7f4661696c656420746f2073656e642045746865722e0000000000000000000000600082015250565b60006119bc6015836110f2565b91506119c782611986565b602082019050919050565b600060208201905081810360008301526119eb816119af565b9050919050565b7f54686520646561646c696e6520686173207061737365642e0000000000000000600082015250565b6000611a286018836110f2565b9150611a33826119f2565b602082019050919050565b60006020820190508181036000830152611a5781611a1b565b9050919050565b7f5468652074617267657420616d6f756e7420686173206265656e20726561636860008201527f65642e0000000000000000000000000000000000000000000000000000000000602082015250565b6000611aba6023836110f2565b9150611ac582611a5e565b604082019050919050565b60006020820190508181036000830152611ae981611aad565b9050919050565b7f4e487b7100000000000000000000000000000000000000000000000000000000600052601160045260246000fd5b6000611b2a82610e52565b9150611b3583610e52565b9250828201905080821115611b4d57611b4c611af0565b5b92915050565b7f54686520646561646c696e652073686f756c642062652061206461746520696e60008201527f20746865206675747572652e0000000000000000000000000000000000000000602082015250565b6000611baf602c836110f2565b9150611bba82611b53565b604082019050919050565b60006020820190508181036000830152611bde81611ba2565b9050919050565b60008190508160005260206000209050919050565b60006020601f8301049050919050565b600082821b905092915050565b600060088302611c477fffffffffffffffffffffffffffffffffffffffffffffffffffffffffffffffff82611c0a565b611c518683611c0a565b95508019841693508086168417925050509392505050565b6000819050919050565b6000611c8e611c89611c8484610e52565b611c69565b610e52565b9050919050565b6000819050919050565b611ca883611c73565b611cbc611cb482611c95565b848454611c17565b825550505050565b600090565b611cd1611cc4565b611cdc818484611c9f565b505050565b5b81811015611d0057611cf5600082611cc9565b600181019050611ce2565b5050565b601f821115611d4557611d1681611be5565b611d1f84611bfa565b81016020851015611d2e578190505b611d42611d3a85611bfa565b830182611ce1565b50505b505050565b600082821c905092915050565b6000611d6860001984600802611d4a565b1980831691505092915050565b6000611d818383611d57565b9150826002028217905092915050565b611d9a826110e7565b67ffffffffffffffff811115611db357611db2611231565b5b611dbd8254611759565b611dc8828285611d04565b600060209050601f831160018114611dfb5760008415611de9578287015190505b611df38582611d75565b865550611e5b565b601f198416611e0986611be5565b60005b82811015611e3157848901518255600182019150602085019450602081019050611e0c565b86831015611e4e5784890151611e4a601f891682611d57565b8355505b6001600288020188555050505b505050505050565b6000611e6e82610e52565b91507fffffffffffffffffffffffffffffffffffffffffffffffffffffffffffffffff8203611ea057611e9f611af0565b5b600182019050919050565b6000611eb682610e52565b9150611ec183610e52565b9250828203905081811115611ed957611ed8611af0565b5b92915050565b7f4e487b7100000000000000000000000000000000000000000000000000000000600052603260045260246000fdfea2646970667358221220aa99caa5e6d0d6ea19fdfd176331d8711c2062f3b54a6c00513f8cad803938d964736f6c63430008180033",
  "linkReferences": {},
  "deployedLinkReferences": {}
}