{
  "_format": "hh-sol-artifact-1",
  "contractName": "Lock",
  "sourceName": "contracts/Lock.sol",
  "abi": [
    {
      "inputs": [],
      "stateMutability": "nonpayable",
      "type": "constructor"
    },
    {
      "stateMutability": "payable",
      "type": "fallback"
    },
    {
      "inputs": [
        {
          "internalType": "uint256",
          "name": "",
          "type": "uint256"
        }
      ],
      "name": "campaigns",
      "outputs": [
        {
          "internalType": "address",
          "name": "owner",
          "type": "address"
        },
        {
          "internalType": "string",
          "name": "title",
          "type": "string"
        },
        {
          "internalType": "string",
          "name": "description",
          "type": "string"
        },
        {
          "internalType": "uint256",
          "name": "target",
          "type": "uint256"
        },
        {
          "internalType": "uint256",
          "name": "deadline",
          "type": "uint256"
        },
        {
          "internalType": "uint256",
          "name": "amountCollected",
          "type": "uint256"
        },
        {
          "internalType": "string",
          "name": "image",
          "type": "string"
        }
      ],
      "stateMutability": "view",
      "type": "function"
    },
    {
      "inputs": [
        {
          "internalType": "address",
          "name": "_owner",
          "type": "address"
        },
        {
          "internalType": "string",
          "name": "_title",
          "type": "string"
        },
        {
          "internalType": "string",
          "name": "_description",
          "type": "string"
        },
        {
          "internalType": "uint256",
          "name": "_target",
          "type": "uint256"
        },
        {
          "internalType": "uint256",
          "name": "_deadline",
          "type": "uint256"
        },
        {
          "internalType": "string",
          "name": "_image",
          "type": "string"
        }
      ],
      "name": "createCampaign",
      "outputs": [
        {
          "internalType": "uint256",
          "name": "",
          "type": "uint256"
        }
      ],
      "stateMutability": "nonpayable",
      "type": "function"
    },
    {
      "inputs": [],
      "name": "deployer",
      "outputs": [
        {
          "internalType": "address",
          "name": "",
          "type": "address"
        }
      ],
      "stateMutability": "view",
      "type": "function"
    },
    {
      "inputs": [
        {
          "internalType": "uint256",
          "name": "_id",
          "type": "uint256"
        }
      ],
      "name": "donateToCampaign",
      "outputs": [],
      "stateMutability": "payable",
      "type": "function"
    },
    {
      "inputs": [],
      "name": "getCampaigns",
      "outputs": [
        {
          "components": [
            {
              "internalType": "address",
              "name": "owner",
              "type": "address"
            },
            {
              "internalType": "string",
              "name": "title",
              "type": "string"
            },
            {
              "internalType": "string",
              "name": "description",
              "type": "string"
            },
            {
              "internalType": "uint256",
              "name": "target",
              "type": "uint256"
            },
            {
              "internalType": "uint256",
              "name": "deadline",
              "type": "uint256"
            },
            {
              "internalType": "uint256",
              "name": "amountCollected",
              "type": "uint256"
            },
            {
              "internalType": "string",
              "name": "image",
              "type": "string"
            },
            {
              "internalType": "address[]",
              "name": "donators",
              "type": "address[]"
            },
            {
              "internalType": "uint256[]",
              "name": "donations",
              "type": "uint256[]"
            }
          ],
          "internalType": "struct Lock.Campaign[]",
          "name": "",
          "type": "tuple[]"
        }
      ],
      "stateMutability": "view",
      "type": "function"
    },
    {
      "inputs": [
        {
          "internalType": "uint256",
          "name": "_id",
          "type": "uint256"
        }
      ],
      "name": "getDonators",
      "outputs": [
        {
          "internalType": "address[]",
          "name": "",
          "type": "address[]"
        },
        {
          "internalType": "uint256[]",
          "name": "",
          "type": "uint256[]"
        }
      ],
      "stateMutability": "view",
      "type": "function"
    },
    {
      "inputs": [],
      "name": "numberOfCampaigns",
      "outputs": [
        {
          "internalType": "uint256",
          "name": "",
          "type": "uint256"
        }
      ],
      "stateMutability": "view",
      "type": "function"
    },
    {
      "inputs": [
        {
          "internalType": "uint256",
          "name": "_id",
          "type": "uint256"
        }
      ],
      "name": "withdrawFunds",
      "outputs": [],
      "stateMutability": "nonpayable",
      "type": "function"
    },
    {
      "stateMutability": "payable",
      "type": "receive"
    }
  ],
  "bytecode": "0x6080604052600060025534801561001557600080fd5b5033600160006101000a81548173ffffffffffffffffffffffffffffffffffffffff021916908373ffffffffffffffffffffffffffffffffffffffff160217905550611f33806100666000396000f3fe60806040526004361061007f5760003560e01c806342a4fda81161004e57806342a4fda81461015d5780639943e3a114610179578063a6b03633146101b6578063d5f39488146101e157610086565b806307ca140d146100885780630fa91fa9146100b3578063141961bc146100f1578063155dd5ee1461013457610086565b3661008657005b005b34801561009457600080fd5b5061009d61020c565b6040516100aa9190610e3f565b60405180910390f35b3480156100bf57600080fd5b506100da60048036038101906100d59190610e9a565b610212565b6040516100e8929190611075565b60405180910390f35b3480156100fd57600080fd5b5061011860048036038101906101139190610e9a565b610322565b60405161012b979695949392919061114b565b60405180910390f35b34801561014057600080fd5b5061015b60048036038101906101569190610e9a565b61051c565b005b61017760048036038101906101729190610e9a565b61074e565b005b34801561018557600080fd5b506101a0600480360381019061019b9190611330565b6108a9565b6040516101ad9190610e3f565b60405180910390f35b3480156101c257600080fd5b506101cb6109ce565b6040516101d891906116dc565b60405180910390f35b3480156101ed57600080fd5b506101f6610d9e565b60405161020391906116fe565b60405180910390f35b60025481565b606080600080848152602001908152602001600020600701600080858152602001908152602001600020600801818054806020026020016040519081016040528092919081815260200182805480156102c057602002820191906000526020600020905b8160009054906101000a900473ffffffffffffffffffffffffffffffffffffffff1673ffffffffffffffffffffffffffffffffffffffff1681526020019060010190808311610276575b505050505091508080548060200260200160405190810160405280929190818152602001828054801561031257602002820191906000526020600020905b8154815260200190600101908083116102fe575b5050505050905091509150915091565b60006020528060005260406000206000915090508060000160009054906101000a900473ffffffffffffffffffffffffffffffffffffffff169080600101805461036b90611748565b80601f016020809104026020016040519081016040528092919081815260200182805461039790611748565b80156103e45780601f106103b9576101008083540402835291602001916103e4565b820191906000526020600020905b8154815290600101906020018083116103c757829003601f168201915b5050505050908060020180546103f990611748565b80601f016020809104026020016040519081016040528092919081815260200182805461042590611748565b80156104725780601f1061044757610100808354040283529160200191610472565b820191906000526020600020905b81548152906001019060200180831161045557829003601f168201915b50505050509080600301549080600401549080600501549080600601805461049990611748565b80601f01602080910402602001604051908101604052809291908181526020018280546104c590611748565b80156105125780601f106104e757610100808354040283529160200191610512565b820191906000526020600020905b8154815290600101906020018083116104f557829003601f168201915b5050505050905087565b6000806000838152602001908152602001600020905080600401544210158061054d57508060030154816005015410155b61058c576040517f08c379a0000000000000000000000000000000000000000000000000000000008152600401610583906117eb565b60405180910390fd5b8060000160009054906101000a900473ffffffffffffffffffffffffffffffffffffffff1673ffffffffffffffffffffffffffffffffffffffff163373ffffffffffffffffffffffffffffffffffffffff161461061e576040517f08c379a00000000000000000000000000000000000000000000000000000000081526004016106159061187d565b60405180910390fd5b6000816005015411610665576040517f08c379a000000000000000000000000000000000000000000000000000000000815260040161065c9061190f565b60405180910390fd5b6000816005015490506000826005018190555060008260000160009054906101000a900473ffffffffffffffffffffffffffffffffffffffff1673ffffffffffffffffffffffffffffffffffffffff16826040516106c290611960565b60006040518083038185875af1925050503d80600081146106ff576040519150601f19603f3d011682016040523d82523d6000602084013e610704565b606091505b5050905080610748576040517f08c379a000000000000000000000000000000000000000000000000000000000815260040161073f906119c1565b60405180910390fd5b50505050565b600034905060008060008481526020019081526020016000209050806004015442106107af576040517f08c379a00000000000000000000000000000000000000000000000000000000081526004016107a690611a2d565b60405180910390fd5b80600301548160050154106107f9576040517f08c379a00000000000000000000000000000000000000000000000000000000081526004016107f090611abf565b60405180910390fd5b80600701339080600181540180825580915050600190039060005260206000200160009091909190916101000a81548173ffffffffffffffffffffffffffffffffffffffff021916908373ffffffffffffffffffffffffffffffffffffffff160217905550806008018290806001815401808255809150506001900390600052602060002001600090919091909150558181600501600082825461089d9190611b0e565b92505081905550505050565b60004283116108ed576040517f08c379a00000000000000000000000000000000000000000000000000000000081526004016108e490611bb4565b60405180910390fd5b600080600060025481526020019081526020016000209050878160000160006101000a81548173ffffffffffffffffffffffffffffffffffffffff021916908373ffffffffffffffffffffffffffffffffffffffff160217905550868160010190816109599190611d80565b508581600201908161096b9190611d80565b5084816003018190555083816004018190555060008160050181905550828160060190816109999190611d80565b50600260008154809291906109ad90611e52565b919050555060016002546109c19190611e9a565b9150509695505050505050565b6060600060025467ffffffffffffffff8111156109ee576109ed611205565b5b604051908082528060200260200182016040528015610a2757816020015b610a14610dc4565b815260200190600190039081610a0c5790505b50905060005b600254811015610d96576000806000838152602001908152602001600020905080604051806101200160405290816000820160009054906101000a900473ffffffffffffffffffffffffffffffffffffffff1673ffffffffffffffffffffffffffffffffffffffff1673ffffffffffffffffffffffffffffffffffffffff168152602001600182018054610ac090611748565b80601f0160208091040260200160405190810160405280929190818152602001828054610aec90611748565b8015610b395780601f10610b0e57610100808354040283529160200191610b39565b820191906000526020600020905b815481529060010190602001808311610b1c57829003601f168201915b50505050508152602001600282018054610b5290611748565b80601f0160208091040260200160405190810160405280929190818152602001828054610b7e90611748565b8015610bcb5780601f10610ba057610100808354040283529160200191610bcb565b820191906000526020600020905b815481529060010190602001808311610bae57829003601f168201915b50505050508152602001600382015481526020016004820154815260200160058201548152602001600682018054610c0290611748565b80601f0160208091040260200160405190810160405280929190818152602001828054610c2e90611748565b8015610c7b5780601f10610c5057610100808354040283529160200191610c7b565b820191906000526020600020905b815481529060010190602001808311610c5e57829003601f168201915b5050505050815260200160078201805480602002602001604051908101604052809291908181526020018280548015610d0957602002820191906000526020600020905b8160009054906101000a900473ffffffffffffffffffffffffffffffffffffffff1673ffffffffffffffffffffffffffffffffffffffff1681526020019060010190808311610cbf575b5050505050815260200160088201805480602002602001604051908101604052809291908181526020018280548015610d6157602002820191906000526020600020905b815481526020019060010190808311610d4d575b505050505081525050838381518110610d7d57610d7c611ece565b5b6020026020010181905250508080600101915050610a2d565b508091505090565b600160009054906101000a900473ffffffffffffffffffffffffffffffffffffffff1681565b604051806101200160405280600073ffffffffffffffffffffffffffffffffffffffff16815260200160608152602001606081526020016000815260200160008152602001600081526020016060815260200160608152602001606081525090565b6000819050919050565b610e3981610e26565b82525050565b6000602082019050610e546000830184610e30565b92915050565b6000604051905090565b600080fd5b600080fd5b610e7781610e26565b8114610e8257600080fd5b50565b600081359050610e9481610e6e565b92915050565b600060208284031215610eb057610eaf610e64565b5b6000610ebe84828501610e85565b91505092915050565b600081519050919050565b600082825260208201905092915050565b6000819050602082019050919050565b600073ffffffffffffffffffffffffffffffffffffffff82169050919050565b6000610f1e82610ef3565b9050919050565b610f2e81610f13565b82525050565b6000610f408383610f25565b60208301905092915050565b6000602082019050919050565b6000610f6482610ec7565b610f6e8185610ed2565b9350610f7983610ee3565b8060005b83811015610faa578151610f918882610f34565b9750610f9c83610f4c565b925050600181019050610f7d565b5085935050505092915050565b600081519050919050565b600082825260208201905092915050565b6000819050602082019050919050565b610fec81610e26565b82525050565b6000610ffe8383610fe3565b60208301905092915050565b6000602082019050919050565b600061102282610fb7565b61102c8185610fc2565b935061103783610fd3565b8060005b8381101561106857815161104f8882610ff2565b975061105a8361100a565b92505060018101905061103b565b5085935050505092915050565b6000604082019050818103600083015261108f8185610f59565b905081810360208301526110a38184611017565b90509392505050565b6110b581610f13565b82525050565b600081519050919050565b600082825260208201905092915050565b60005b838110156110f55780820151818401526020810190506110da565b60008484015250505050565b6000601f19601f8301169050919050565b600061111d826110bb565b61112781856110c6565b93506111378185602086016110d7565b61114081611101565b840191505092915050565b600060e082019050611160600083018a6110ac565b81810360208301526111728189611112565b905081810360408301526111868188611112565b90506111956060830187610e30565b6111a26080830186610e30565b6111af60a0830185610e30565b81810360c08301526111c18184611112565b905098975050505050505050565b6111d881610f13565b81146111e357600080fd5b50565b6000813590506111f5816111cf565b92915050565b600080fd5b600080fd5b7f4e487b7100000000000000000000000000000000000000000000000000000000600052604160045260246000fd5b61123d82611101565b810181811067ffffffffffffffff8211171561125c5761125b611205565b5b80604052505050565b600061126f610e5a565b905061127b8282611234565b919050565b600067ffffffffffffffff82111561129b5761129a611205565b5b6112a482611101565b9050602081019050919050565b82818337600083830152505050565b60006112d36112ce84611280565b611265565b9050828152602081018484840111156112ef576112ee611200565b5b6112fa8482856112b1565b509392505050565b600082601f830112611317576113166111fb565b5b81356113278482602086016112c0565b91505092915050565b60008060008060008060c0878903121561134d5761134c610e64565b5b600061135b89828a016111e6565b965050602087013567ffffffffffffffff81111561137c5761137b610e69565b5b61138889828a01611302565b955050604087013567ffffffffffffffff8111156113a9576113a8610e69565b5b6113b589828a01611302565b94505060606113c689828a01610e85565b93505060806113d789828a01610e85565b92505060a087013567ffffffffffffffff8111156113f8576113f7610e69565b5b61140489828a01611302565b9150509295509295509295565b600081519050919050565b600082825260208201905092915050565b6000819050602082019050919050565b600082825260208201905092915050565b6000611459826110bb565b611463818561143d565b93506114738185602086016110d7565b61147c81611101565b840191505092915050565b600082825260208201905092915050565b60006114a382610ec7565b6114ad8185611487565b93506114b883610ee3565b8060005b838110156114e95781516114d08882610f34565b97506114db83610f4c565b9250506001810190506114bc565b5085935050505092915050565b600082825260208201905092915050565b600061151282610fb7565b61151c81856114f6565b935061152783610fd3565b8060005b8381101561155857815161153f8882610ff2565b975061154a8361100a565b92505060018101905061152b565b5085935050505092915050565b60006101208301600083015161157e6000860182610f25565b5060208301518482036020860152611596828261144e565b915050604083015184820360408601526115b0828261144e565b91505060608301516115c56060860182610fe3565b5060808301516115d86080860182610fe3565b5060a08301516115eb60a0860182610fe3565b5060c083015184820360c0860152611603828261144e565b91505060e083015184820360e086015261161d8282611498565b9150506101008301518482036101008601526116398282611507565b9150508091505092915050565b60006116528383611565565b905092915050565b6000602082019050919050565b600061167282611411565b61167c818561141c565b93508360208202850161168e8561142d565b8060005b858110156116ca57848403895281516116ab8582611646565b94506116b68361165a565b925060208a01995050600181019050611692565b50829750879550505050505092915050565b600060208201905081810360008301526116f68184611667565b905092915050565b600060208201905061171360008301846110ac565b92915050565b7f4e487b7100000000000000000000000000000000000000000000000000000000600052602260045260246000fd5b6000600282049050600182168061176057607f821691505b60208210810361177357611772611719565b5b50919050565b7f5468652074617267657420616d6f756e74206f7220646561646c696e6520686160008201527f73206e6f74206265656e20726561636865642e00000000000000000000000000602082015250565b60006117d56033836110c6565b91506117e082611779565b604082019050919050565b60006020820190508181036000830152611804816117c8565b9050919050565b7f4f6e6c79207468652063616d706169676e206f776e65722063616e207769746860008201527f64726177207468652066756e64732e0000000000000000000000000000000000602082015250565b6000611867602f836110c6565b91506118728261180b565b604082019050919050565b600060208201905081810360008301526118968161185a565b9050919050565b7f4e6f2066756e647320617661696c61626c6520666f722077697468647261776160008201527f6c2e000000000000000000000000000000000000000000000000000000000000602082015250565b60006118f96022836110c6565b91506119048261189d565b604082019050919050565b60006020820190508181036000830152611928816118ec565b9050919050565b600081905092915050565b50565b600061194a60008361192f565b91506119558261193a565b600082019050919050565b600061196b8261193d565b9150819050919050565b7f4661696c656420746f2073656e642045746865722e0000000000000000000000600082015250565b60006119ab6015836110c6565b91506119b682611975565b602082019050919050565b600060208201905081810360008301526119da8161199e565b9050919050565b7f54686520646561646c696e6520686173207061737365642e0000000000000000600082015250565b6000611a176018836110c6565b9150611a22826119e1565b602082019050919050565b60006020820190508181036000830152611a4681611a0a565b9050919050565b7f5468652074617267657420616d6f756e7420686173206265656e20726561636860008201527f65642e0000000000000000000000000000000000000000000000000000000000602082015250565b6000611aa96023836110c6565b9150611ab482611a4d565b604082019050919050565b60006020820190508181036000830152611ad881611a9c565b9050919050565b7f4e487b7100000000000000000000000000000000000000000000000000000000600052601160045260246000fd5b6000611b1982610e26565b9150611b2483610e26565b9250828201905080821115611b3c57611b3b611adf565b5b92915050565b7f54686520646561646c696e652073686f756c642062652061206461746520696e60008201527f20746865206675747572652e0000000000000000000000000000000000000000602082015250565b6000611b9e602c836110c6565b9150611ba982611b42565b604082019050919050565b60006020820190508181036000830152611bcd81611b91565b9050919050565b60008190508160005260206000209050919050565b60006020601f8301049050919050565b600082821b905092915050565b600060088302611c367fffffffffffffffffffffffffffffffffffffffffffffffffffffffffffffffff82611bf9565b611c408683611bf9565b95508019841693508086168417925050509392505050565b6000819050919050565b6000611c7d611c78611c7384610e26565b611c58565b610e26565b9050919050565b6000819050919050565b611c9783611c62565b611cab611ca382611c84565b848454611c06565b825550505050565b600090565b611cc0611cb3565b611ccb818484611c8e565b505050565b5b81811015611cef57611ce4600082611cb8565b600181019050611cd1565b5050565b601f821115611d3457611d0581611bd4565b611d0e84611be9565b81016020851015611d1d578190505b611d31611d2985611be9565b830182611cd0565b50505b505050565b600082821c905092915050565b6000611d5760001984600802611d39565b1980831691505092915050565b6000611d708383611d46565b9150826002028217905092915050565b611d89826110bb565b67ffffffffffffffff811115611da257611da1611205565b5b611dac8254611748565b611db7828285611cf3565b600060209050601f831160018114611dea5760008415611dd8578287015190505b611de28582611d64565b865550611e4a565b601f198416611df886611bd4565b60005b82811015611e2057848901518255600182019150602085019450602081019050611dfb565b86831015611e3d5784890151611e39601f891682611d46565b8355505b6001600288020188555050505b505050505050565b6000611e5d82610e26565b91507fffffffffffffffffffffffffffffffffffffffffffffffffffffffffffffffff8203611e8f57611e8e611adf565b5b600182019050919050565b6000611ea582610e26565b9150611eb083610e26565b9250828203905081811115611ec857611ec7611adf565b5b92915050565b7f4e487b7100000000000000000000000000000000000000000000000000000000600052603260045260246000fdfea2646970667358221220a82c1534da26d634a3d34c08b25f54477f93e4744cca212b1d826319096ac05e64736f6c63430008180033",
  "linkReferences": {},
  "deployedLinkReferences": {}
}